:10000000D02CFF3FFF3FFF3FFF00030E831203137F
:10001000B4000A0EB500040EB6008A110A12F82CBC
:10002000CF08031D14280800F930FF3E031D1528D2
:100030000000CF0B14280800FA30CF001020FA304F
:10004000CF001020FA30CF001020FA30CF0010205F
:10005000CE0B1C28080083169C182B2883124E08F0
:1000600083169B008312500883169A001C1580305B
:100070000B058312D1008B13553083169D00AA30D7
:100080009D009C149C1842288312D108031949280A
:100090008B1783161C110800D0014E0883169B0095
:1000A0001C141A088312D0005008D1000800073031
:1000B000831203139F00C030831681009630831291
:1000C000B900BA0183168601FF3083128600013021
:1000D000CE001C20CE01CF014C205108B900BA013E
:1000E000C601103046020318DA28043083160504CE
:1000F0008500043083120505CE00C40104304E0291
:100100000319C40A083083160504850008308312D9
:100110000505CE00C50108304E020319C50AC40802
:10012000031D9C280A30B902BA08031CBA03CE0189
:10013000CF013908D0002B208312C508031DAA283F
:100140000A30B907BA080318BA0ACE01CF01390834
:10015000D0002B208312B908031DB928BA08031D4B
:10016000B9280A30B900BA01CE01CF013908D00050
:100170002B20FA308312390603193A08031DC828C8
:10018000F030B900BA01CE01CF013908D0002B20E0
:10019000831686015530831286003908CF0010205F
:1001A00083168601AA30831286003908CF001020FA
:1001B000C60A712883168601831286013908CF008A
:1001C0001020C70104304702031882290430831627
:1001D00005048500043083120505CE00C4010430F7
:1001E0004E020319C40A083083160504850008303E
:1001F00083120505CE00C50108304E020319C50A59
:10020000C408031D0D290A30B902BA08031CBA0339
:10021000CE01CF013908D0002B208312C508031D61
:100220001B290A30B907BA080318BA0ACE01CF0150
:100230003908D0002B208312B908031D2A29BA08D7
:10024000031D2A290A30B900BA01CE01CF013908AD
:10025000D0002B20FA308312390603193A08031D07
:100260003929F030B900BA01CE01CF013908D000E8
:100270002B20831686018030831286003908CF0038
:10028000102083168601C030831286003908CF0003
:10029000102083168601E030831286003908CF00D3
:1002A000102083168601F030831286003908CF00B3
:1002B000102083168601F830831286003908CF009B
:1002C000102083168601FC30831286003908CF0087
:1002D000102083168601FE30831286003908CF0075
:1002E000102083168601FF30831286003908CF0064
:1002F000102083168601831286013908CF00102052
:10030000C70AE22883168601831286013908CF00C6
:100310001020C801103048020318F3290430831656
:1003200005048500043083120505CE00C4010430A5
:100330004E020319C40A08308316050485000830EC
:1003400083120505CE00C50108304E020319C50A07
:10035000C408031DB5290A30B902BA08031CBA0340
:10036000CE01CF013908D0002B208312C508031D10
:10037000C3290A30B907BA080318BA0ACE01CF0157
:100380003908D0002B208312B908031DD229BA08DE
:10039000031DD2290A30B900BA01CE01CF013908B4
:1003A000D0002B20FA308312390603193A08031DB6
:1003B000E129F030B900BA01CE01CF013908D000EF
:1003C0002B20831686010F30831286003908CF0058
:1003D000102083168601F030831286003908CF0082
:1003E0001020C80A8A2983168601831286013908DB
:1003F000CF001020C901043049020318932A0430A9
:10040000831605048500043083120505CE00C4015F
:1004100004304E020319C40A08308316050485000F
:10042000083083120505CE00C50108304E020319BD
:10043000C50AC408031D262A0A30B902BA08031CDB
:10044000BA03CE01CF013908D0002B208312C50892
:10045000031D342A0A30B907BA080318BA0ACE01B4
:10046000CF013908D0002B208312B908031D432A7D
:10047000BA08031D432A0A30B900BA01CE01CF01E0
:100480003908D0002B20FA308312390603193A08B4
:10049000031D522AF030B900BA01CE01CF0139084C
:1004A000D0002B2083168601813083128600390804
:1004B000CF00102083168601C330831286003908CE
:1004C000CF00102083168601E7308312860039089A
:1004D000CF00102083168601FF3083128600390872
:1004E000CF00102083168601E7308312860039087A
:1004F000CF00102083168601C3308312860039088E
:10050000CF001020831686018130831286003908BF
:10051000CF00102083168601831286013908CF0090
:100520001020C90AFB29CA0110304A020318FD2A0B
:100530000430831605048500043083120505CE00BF
:10054000C40104304E020319C40A0830831605049E
:100550008500083083120505CE00C50108304E0223
:100560000319C50AC408031DBF2A0A30B902BA0814
:10057000031CBA03CE01CF013908D0002B2083120F
:10058000C508031DCD2A0A30B907BA080318BA0AEC
:10059000CE01CF013908D0002B208312B908031DEA
:1005A000DC2ABA08031DDC2A0A30B900BA01CE01E0
:1005B000CF013908D0002B20FA30831239060319F5
:1005C0003A08031DEB2AF030B900BA01CE01CF0181
:1005D0003908D0002B2083168601CC308312860088
:1005E0003908CF001020831686013330831286002D
:1005F0003908CF001020CA0A942A83168601831274
:1006000086013908CF001020CB0110304B020318AF
:100610006D2B043083160504850004308312050514
:10062000CE00C40104304E020319C40A08308316F8
:1006300005048500083083120505CE00C501083089
:100640004E020319C50AC408031D302B0A30B90233
:10065000BA08031CBA03CE01CF013908D0002B2001
:100660008312C508031D3E2B0A30B907BA080318C8
:10067000BA0ACE01CF013908D0002B208312B90865
:10068000031D4D2BBA08031D4D2B0A30B900BA01CA
:10069000CE01CF013908D0002B20FA308312390661
:1006A00003193A08031D5C2BF030B900BA01CE01E2
:1006B000CF013908D0002B2083168601FF3083122A
:1006C00086003908CF001020831686018312860128
:1006D0003908CF001020CB0A052BCC0104304C0286
:1006E0000318462C04308316050485000430831259
:1006F0000505CE00C40104304E020319C40A0830B7
:10070000831605048500083083120505CE00C50157
:1007100008304E020319C50AC408031D992B0A307C
:10072000B902BA08031CBA03CE01CF013908D000C0
:100730002B208312C508031DA72B0A30B907BA085E
:100740000318BA0ACE01CF013908D0002B2083123A
:10075000B908031DB62BBA08031DB62B0A30B90021
:10076000BA01CE01CF013908D0002B20FA30831214
:10077000390603193A08031DC52BF030B900BA0138
:10078000CE01CF013908D0002B208316860101301D
:10079000831286003908CF001020831686010330AB
:1007A000831286003908CF00102083168601073097
:1007B000831286003908CF001020831686010F307F
:1007C000831286003908CF001020831686011F305F
:1007D000831286003908CF001020831686013F302F
:1007E000831286003908CF001020831686017F30DF
:1007F000831286003908CF00102083168601FF304F
:10080000831286003908CF00102083168601FE303F
:10081000831286003908CF00102083168601FC3031
:10082000831286003908CF00102083168601F83025
:10083000831286003908CF00102083168601F0301D
:10084000831286003908CF00102083168601E0301D
:10085000831286003908CF00102083168601C0302D
:10086000831286003908CF0010208316860180305D
:10087000831286003908CF00102083168601831268
:1008800086013908CF001020CC0A6E2BCD010A302A
:100890004D020318C82C043083160504850004306B
:1008A00083120505CE00C40104304E020319C40AA8
:1008B0000830831605048500083083120505CE0034
:1008C000C50108304E020319C50AC408031D722C65
:1008D0000A30B902BA08031CBA03CE01CF013908A5
:1008E000D0002B208312C508031D802C0A30B907C5
:1008F000BA080318BA0ACE01CF013908D0002B205C
:100900008312B908031D8F2CBA08031D8F2C0A30DF
:10091000B900BA01CE01CF013908D0002B20FA303E
:100920008312390603193A08031D9E2CF030B900D2
:10093000BA01CE01CF013908D0002B2083168601E1
:10094000E730831286003908CF0010208316860115
:100950007330831286003908CF0010208316860179
:100960003930831286003908CF00102083168601A3
:100970009C30831286003908CF0010208316860130
:10098000CE30831286003908CF001020CD0A472CC4
:1009900083168601831286013908CF0010206A2849
:1009A000D53083120313A000C430A100BB30A200D5
:1009B000DC30A300A401A501A601A701A801A9019B
:1009C000AA01AB01AC01AD01AE01AF01BE01BF0197
:1009D000B701B801C001C101C201C301B001B10139
:1009E000B201B301BC01BD01BB018A110A12572833
:1009F00083120313360E8400350E8A00340E8300F2
:100A0000FF0E7F0E0900FF3FFF3FFF3FFF3FFF3F0D
:08400000FF3FFF3FFF3FFF3FC0
:02400E00103F61
:00000001FF